:020000020000FC
:040000000C942A0032
:100050000C94D6010C94B7010F932F933F9300910A
:1000600032000F7D24FD00620093340000912C00CB
:10007000077F25FD086000932E0000910001077F97
:1000800026FD086000930201009100010F7E27FD0C
:1000900000610093020100910001006400930201DD
:1000A00031E00E947A01009100010F7B0093020170
:1000B0003F912F910F9108952F933F930F93DF93CB
:1000C000CF93DEB7CDB729850E942C0032E30E9482
:1000D0007A0122950E942C0032E30E947A01CF918E
:1000E000DF910F913F912F9108950F933F932F939D
:1000F000DF93CF93DEB7CDB72985009100010F7D47
:10010000009302012F930E945C002F91243018F479
:1001100032E00E948401CF91DF912F913F910F91A6
:1001200008950F932F93DF93CF93DEB7CDB7288534
:10013000009100010062009302012F930E945C0075
:100140002F9100910102039500930102CF91DF915D
:100150002F910F9108950F931F93DF93CF93FF93E8
:10016000EF93DEB7CDB7FB85EA851191103029F00A
:100170001F930E9491001F91F8CFEF91FF91CF91B3
:10018000DF911F910F9108950F931F93DF93CF93EA
:10019000DEB7CDB70885198511301CF011E00C943D
:1001A000D4000F300CF00FE0109300020093010216
:1001B000113019F410EC0C94DE0010E8010F0F93CD
:1001C0000E9475000F91CF91DF911F910F910895BB
:1001D0000F9301E00F930E9475000F910027009389
:1001E0000002009301020F9108950F932F933F9304
:1001F00000913300006200933300009132000F7DC4
:100200000093340000912D00086000932D000091B0
:100210002C00077F00932E000091010108600093DD
:10022000010100910001077F00930201009101018B
:10023000006100930101009100010F7E0093020113
:1002400000910101006200930101009100010F7D06
:1002500000930201009101010064009301010091EB
:1002600000010F7B009302013FE00E94840135E012
:100270000E94840120E30E942C0035E00E9484014A
:1002800020E30E942C0057E03FE00E9484015A9531
:10029000D9F720E30E942C0032E30E947A0120E289
:1002A0000E942C0032E30E947A0108E20F930E9420
:1002B00075000F9108E00F930E9475000F9101E007
:1002C0000F930E9475000F9132E00E94840106E0B6
:1002D0000F930E9475000F910CE00F930E94750020
:1002E0000F91002700930002009301023F912F918C
:1002F0000F9108950F933F9305E00A95F1F73A9512
:10030000D9F73F910F9108950F931F933F93DF9378
:10031000CF930DEF309F012D0295007FD02F002D40
:100320000295102F007F1F70C02FD12B2197F1F75E
:10033000CF91DF913F911F910F9108950F93FF93FC
:10034000EF93BF93AF93DF93CF93DEB7CDB7EB853A
:10035000FC85AD85BE85059100300D93E1F7CF9109
:10036000DF91AF91BF91EF91FF910F9108950E949E
:10037000F5000E9435030E943D030E94490240E0BF
:1003800060E00FEF202E0FE7402EF2E0E2E00E9447
:10039000B802582FF2E0EAEC0E94B802782F33241A
:1003A00001E00F930E9425030F91FFCF3F933091FF
:1003B0003F003F9333940E94FC01332D3F933F77DE
:1003C0003F3779F03F913421341531F4222021F068
:1003D0000E94E8000E941E023F9130933F003F912F
:1003E00018950E940B02342D3695369530953F9323
:1003F0000E94FD023F91E6CF8F930E94C50282309A
:1004000031F0843009F005C08FEF282E02C022247D
:1004100000C08F9108958F930E94C502813039F0FA
:10042000883009F009C0440C81E0480E05C087E01F
:10043000481610F0469400C08F910895FF93EF93F3
:10044000BF93AF93F2E0E2E0B3E0A2E94F930E94E2
:1004500081024F9100E00F930E9468020F91439533
:10046000451709F440E0F2E0EAECB3E0A2E96F934B
:100470000E9481026F9101E00F930E9468020F9128
:100480006395671709F460E0AF91BF91EF91FF9119
:1004900008950F9302E00F9302E00F9306E00F938D
:1004A0000CE80F930E949E010F910F910F910F91F5
:1004B00002E00F930AEC0F9306E00F9304E90F9309
:1004C0000E949E010F910F910F910F910F9108952E
:1004D0000F93FF93EF93FEB7EDB707810F9300E003
:1004E0000F930E94C4000F910F9103E00F9302E954
:1004F0000F930E94AB000F910F91EF91FF910F911D
:1005000008950F931F932F933F93FF93EF93FEB79D
:10051000EDB73285EF91FF91FF93EF9311272227DB
:10052000131749F00191003021F4EF91FF91FF93EF
:10053000EF931395F5CF0191003029F00D9323959A
:10054000203169F0F8CFEF91FF91EF93FF93019184
:100550000030C9F30D932395203109F0F8CF00E066
:100560000D93EF91FF913F912F911F910F9108955E
:100570000F93FF93EF9380E00191003011F083958A
:10058000FBCFEF91FF910F9108950F931F9300916F
:100590007A00006400937A0000917A000074E1F719
:1005A000009178001091790080E1133028F0063135
:1005B00008F188270C94FA02123038F00B3210F050
:1005C0000C94FA0286950C94FA028695113038F054
:1005D0000C3710F00C94FA0286950C94FA0286956A
:1005E000033C10F00C94FA028695023310F00C9440
:1005F000FA0286951F910F9108950F931F932F93E1
:100600000F92FF93EF93FEB7EDB7028411272227D5
:10061000002D069508F41068069508F410620695FA
:1006200008F41860069508F41260069508F428602E
:10063000069508F4226010930B0125B9EF91FF9104
:100640000F902F911F910F9108950F93FF93EF93A8
:10065000FEB7EDB701E000936F00078100938100C2
:100660007894EF91FF910F9108950F930AE004B9E8
:100670000AEA00930A010F9108950F9307E8009387
:100680007A0000E400937C000F910895736D616C13
:0C0690006C200000737472696E6720001B
:00000001FF
