:020000020000FC
:1000000007E800937A0000E400937C000FEF04B946
:1000100000930A0101E20EBF0FEF0DBF00240E9402
:1000200064000E9420008823E1F3082E0E946400EF
:1000300043E60E94580040E0042E0E946400F1CF85
:100040000F931F9300917A00006400937A0000914F
:100050007A000074E1F7009178001091790080E156
:10006000133028F0063108F188270C94550012301F
:1000700038F00B3210F00C94550086950C94550016
:100080008695113038F00C3710F00C945500869599
:100090000C9455008695033C10F00C945500869501
:1000A000023310F00C94550086951F910F9108951E
:1000B00000005FEF00006FEF00006A95E9F75A95C6
:1000C000C9F74A95A9F708951F932F930F93112706
:1000D0002227002D069508F41068069508F4106292
:1000E000069508F41860069508F41260069508F461
:1000F0002860069508F4226010930B0125B90F9132
:060100001F912F910895EC
:00000001FF
