:1000000071C000008EC000008CC000008AC00000DB
:1000100088C0000086C0000084C0000082C00000CC
:1000200080C000007EC000007CC000007AC00000DC
:1000300078C0000076C0000074C0000072C00000EC
:1000400070C000006EC000006CC000006AC00000FC
:1000500068C0000066C0000064C0000035C1000038
:1000600060C000005EC000005CC000005AC000001C
:1000700058C0000056C0000054C0000052C000002C
:1000800050C000004EC000004CC000004AC000003C
:1000900048C0000046C0000044C0000042C000004C
:1000A00040C000003EC000003CC000003AC000005C
:1000B00038C0000036C0000034C0000032C000006C
:1000C00030C000002EC000002CC000002AC000007C
:1000D00028C0000026C0000024C0000022C000008C
:1000E00020C0000011241FBECFEFD1E2DEBFCDBF84
:1000F00000E00CBF12E0A0E0B2E0ECE2F7E000E0CC
:100100000BBF02C007900D92AA33B107D9F722E0C6
:10011000AAE3B2E001C01D92AE33B207E1F760D1AD
:1001200003C36ECFE2E0F1E090819F7E908388234D
:100130001CF4908190619083E2E0F1E09081977FE0
:10014000908386FF03C0908198609083739885FDAB
:10015000739AA59884FDA59AE2E0F1E0808180641D
:10016000808385E08A95F1F7000080818F7B808312
:100170000895CF93C82FE2E0F1E080818F7D8083E6
:100180008C2FD0DF8C2F8295807FCCDF87EC90E0A6
:100190000197F1F700C00000C43018F0C03850F0EB
:1001A00007C08FE39FE10197F1F700C00000C0E8AE
:1001B000C0930602CF910895CF93C82FE2E0F1E0FB
:1001C0008081806280838C2FADDF8C2F8295807F31
:1001D000A9DF87EC90E00197F1F700C00000809163
:1001E00006028F5F80930602803921F0803D21F462
:1001F00080E801C080ECBDDFCF910895CF93DF93FD
:10020000EC018881882329F02196D6DF899181111C
:10021000FCCFDF91CF9108959D9A6B9AE1E0F1E0D8
:10022000808188608083808180618083808180621A
:100230008083808180648083E2E0F1E080818F7B35
:10024000808380818F7D80838FE59AEE0197F1F71F
:1002500000C0000080E366DF8FE090E40197F1F7D3
:1002600000C0000080E35EDF8FE891E00197F1F7C6
:1002700000C0000080E356DF87EC90E00197F1F7C3
:1002800000C0000080E24EDF87EC90E00197F1F7BC
:1002900000C0000088E26DDF88E06BDF81E069DF8D
:1002A00086E067DF8CE065CF0895EAE7F0E08081C3
:1002B00080648083808186FDFDCF809178002091CD
:1002C000790090E0922B08951F920F920FB60F9233
:1002D00011240BB60F922F933F934F935F936F931D
:1002E0007F938F939F93AF93BF93EF93FF93DDDF44
:1002F000833C910529F4109208021092070209C06C
:100300008C37914031F481E090E090930802809323
:100310000702FF91EF91BF91AF919F918F917F91D4
:100320006F915F914F913F912F910F900BBE0F9066
:100330000FBE0F901F901895FC012081211103C062
:1003400080E090E00895FC01319680E090E0019615
:1003500021912111FCCF0895AF92BF92CF92DF92ED
:10036000EF92FF920F931F93CF93DF937C018B014A
:10037000DC018D919C91E0DF5C01F70122813381EA
:10038000E8016901F0E1CF0ED11CC901B50184D0AB
:10039000D701ED91FC91E80FF91F808189932F5FC0
:1003A0003F4F2C153D0589F7F801108AC801DF91F0
:1003B000CF911F910F91FF90EF90DF90CF90BF9062
:1003C000AF900895CF93DF93EC0184E090E08BD061
:1003D000FC01D183C08313821282DF91CF910895F3
:1003E0001BDF87E880937A0080E480937C0081E0C3
:1003F00080936E0016BC14BC83E085BD789489E0C0
:1004000092E0E0DF8C0187E192E0DCDFEC0181E14A
:1004100090E069D06C018091070290910802892BCD
:1004200089F181E0A6DEF801E280F380FFEFEF1AA8
:10043000FF0AF801F382E282808191817DDFBC01B5
:10044000C7012AD0F80193838283B601C80184DFF3
:1004500080E88FDEC601D2DEEA80FB80FFEFEF1A74
:10046000FF0AFB82EA828881998166DFBC01C701AD
:1004700013D09B838A83B601CE016EDF80EC79DED8
:10048000C601BCDE2FEF89E698E121508040904004
:10049000E1F700C00000BFCF97FB072E16F40094D1
:1004A00006D077FD08D00BD007FC05D03EF4909520
:1004B00081959F4F0895709561957F4F0895AA1B70
:1004C000BB1B51E107C0AA1FBB1FA617B70710F03F
:1004D000A61BB70B881F991F5A95A9F78095909571
:1004E000BC01CD0108950F931F93CF93DF9382300A
:1004F000910510F482E090E0E0913C02F0913D0221
:1005000020E030E0A0E0B0E0309719F14081518167
:100510000281138148175907C8F08417950769F4B9
:10052000109731F012960C93129713961C9327C0D4
:1005300000933C0210933D0222C02115310519F0B1
:100540004217530718F49A01BD01EF01DF01F801CA
:10055000DBCF21153105F9F0281B390B243031058B
:1005600080F48A819B816115710521F0FB019383E1
:10057000828304C090933D0280933C02FE01329638
:1005800044C0FE01E20FF31F819391932250310981
:10059000398328833AC020913A0230913B02232BC1
:1005A00041F4209102023091030230933B022093E8
:1005B0003A0220910002309101022115310541F4E7
:1005C0002DB73EB74091040250910502241B350B14
:1005D000E0913A02F0913B02E217F307A0F42E1BE0
:1005E0003F0B2817390778F0AC014E5F5F4F241797
:1005F000350748F04E0F5F1F50933B0240933A027D
:100600008193919302C0E0E0F0E0CF01DF91CF91C0
:100610001F910F910895CF93DF93009709F481C044
:10062000FC01329713821282A0913C02B0913D02EC
:10063000109781F420813181820F931F20913A021B
:1006400030913B022817390751F5F0933B02E093B4
:100650003A0267C0ED0120E030E0CE17DF0740F43A
:100660004A815B819E0141155105F1F0EA01F5CF08
:10067000D383C28340815181840F951FC817D90746
:1006800059F488819981840F951F02969183808304
:100690008A819B81938382832115310529F4F0930C
:1006A0003D02E0933C023DC0E901FB83EA834991AE
:1006B0005991C40FD51FEC17FD0761F4808191811A
:1006C000840F951F0296E901998388838281938123
:1006D0009B838A83E0E0F0E012968D919C911397C2
:1006E000009719F0FD01DC01F7CF8D919C911197D6
:1006F0009D012E5F3F4F820F931F20913A02309150
:100700003B022817390769F4309729F410923D020B
:1007100010923C0202C013821282B0933B02A0935B
:0C0720003A02DF91CF910895F894FFCFCA
:10072C0000003E02200080010073686F7274207319
:10073C007472696E67200074686973206973206134
:10074C0020736C696768746C79206C6F6E67657266
:0A075C0020737472696E67200000BC
:00000001FF
